:020000040000FA
:040000001FEF05F0F9
:08000800056ED8CF06F0E0CF31
:1000100007F00001E9CF0DF0EACF08F0E1CF09F0D9
:10002000E2CF0AF0D9CF0BF0DACF0CF0F3CF14F017
:10003000F4CF15F0FACF16F000C00FF001C010F0A9
:1000400002C011F003C012F004C013F0F2AA2CEFAA
:1000500000F0F2B477EF01F09DAA32EF00F09EBA03
:100060004EEF01F09DA838EF00F09EB863EF01F06D
:100070000FC000F010C001F011C002F012C003F078
:1000800013C004F00DC0E9FF08C0EAFF088E09C0E4
:10009000E1FF0AC0E2FF0BC0D9FF0CC0DAFF14C0B9
:1000A000F3FF15C0F4FF16C0FAFF055007C0E0FFCC
:1000B00006C0D8FF1000F2CF0EF0F29EF76AD00F04
:1000C000F66E000EF7220900F5500EBEF28E1200F9
:1000D00054617267657420310000F2CF0EF0F29E19
:1000E000F76AF40FF66E000EF7220900F5500EBE07
:1000F000F28E120054617267657420320000F2CFF4
:100100000EF0F29EF76A180FF66E010EF722090044
:10011000F5500EBEF28E1200546172676574203382
:100120000000F2CF0EF0F29EF76A3C0FF66E010E61
:10013000F7220900F5500EBEF28E1200546172676C
:10014000657420340000F2CF0EF0F29EF76A600F63
:10015000F66E010EF7220900F5500EBEF28E120067
:1001600054617267657420350000F2CF0EF0F29E84
:10017000F76A840FF66E010EF7220900F5500EBEE5
:10018000F28E120054617267657420360000F2CF5F
:100190000EF0F29EF76AA80FF66E010EF722090024
:1001A000F5500EBEF28E12005461726765742037EE
:1001B0000000F2CF0EF0F29EF76ACC0FF66E010E41
:1001C000F7220900F5500EBEF28E120054617267DC
:1001D000657420380000F2CF0EF0F29EF76AF00F3F
:1001E000F66E010EF7220900F5500EBEF28E1200D7
:1001F0004325642C310D0A00F2CF0EF0F29EF76A0F
:10020000120FF66E020EF7220900F5500EBEF28EA6
:1002100012004325642C300D0A00F2CF0EF0F29E3E
:10022000F76A340FF66E020EF7220900F5500EBE83
:10023000F28E12007374617465202564200D0A002B
:100240000101976B9651975D19E2036A97511B0F55
:10025000016E000E032203C099F1036A97519425A1
:10026000E96E95510320EA6EEFCF9AF199C1EAFF4A
:1002700001C0E9FF9AC1EFFF972BE4D796C149F07F
:100280004B6A9D880001000C010E0101956F930ED1
:10029000946F010E966F0001D3DF000C036A4A5081
:1002A000390FE96E000E0320EA6EAECFEFFF4A2A47
:1002B000AECF93F1E9DF4A504F0801E24A6A9E9AB5
:1002C0009E9A38EF00F0036A4B501B0FE96E000E48
:1002D0000320EA6EEFCFADFF49064B2A0F0E4916F9
:1002E0009D88495201E19D989E9838EF00F00101E8
:1002F0006B2BD8B46C2B6C51260808E2FF0A03E183
:100300006B51100803E26C6B010E6B6F69510A08A8
:100310004AE168510A0A000109E01E0A13E00A0ACC
:100320001DE0360A27E01A0A31E03AD0959E8C8EFD
:10033000959C8C9C959A8C9A95988C98140E01019A
:10034000686F30D0959E8C9E959C8C8C959A8C9ADB
:1003500095988C981E0E0101686F24D0959E8C9EF6
:10036000959C8C9C959A8C8A95988C98280E010166
:10037000686F18D0959E8C9E959C8C9C959A8C9AB3
:1003800095988C880A0E0101686F0CD0959E8C9E02
:10039000959C8C9C959A8C9A95988C98010102D08A
:1003A000010100D008D0959E8C9E959C8C9C959ABE
:1003B0008C9A95988C98675305E1010E676F95901C
:1003C0008C8003D095908C90676BD90ED76E030EFE
:1003D000D66EF294F294000138EF00F0016A026ADE
:1003E000006A036A0101875102E1865118E0100E8C
:1003F000886FD89084378537003603368751035C81
:1004000002E18651005C07E38651005ED8A0030636
:100410008751035ED88001360236882FEAD7000163
:10042000000C0101876B886B84C1E9FF85C1EAFF7D
:10043000EFCF86F1886B8851070817E3036A88516C
:100440008425E96E85510320EA6EEF50865D0BE24C
:10045000036A88518425E96E85510320EA6EEFCF47
:1004600086F188C187F1882BE6D7886B8851070809
:1004700017E3036A88518425E96E85510320EA6EEB
:10048000EF50865D0BE2036A88518425E96E855141
:100490000320EA6EEFCF86F188C187F1882BE6D77B
:1004A000036A87518425E96E85510320EA6EEF5077
:1004B0000F0804E287C101F004D003D0FF0E016EE3
:1004C00000D00001EBEF05F09EA8FED7AD6E000C4A
:1004D00001019151016A905D03E290C100F00CD0DE
:1004E000006A080E926F903700369151005CD8B0C8
:1004F000006E0136922FF7D70001000C200E01018B
:100500008BA9300E8C6F8AC100F08AAF07D0001E15
:10051000002A00C08AF12D0E8C6F8B8F01508AC18A
:1005200090F1640E916F0001D3DF00C08AF1300EAC
:10053000012401018D6F8AC190F10A0E916F0001B3
:10054000C7DF300E002401018F6F300E01248E6F43
:100550008CC100F08BA702D08BAF8B958BB90BD0E1
:100560008BAF22D08BB520D000C08DF18BB31CD0C7
:1005700000C08EF119D0300E8D5D16E100C08DF1F6
:10058000200E8C6F8BA704D08B958B838BAF8B93B6
:10059000300E8E5D09E100C08EF1200E8D6F8BA7AD
:1005A000F7D78B938BAF8B918BA504D08C519EA8E2
:1005B000FED7AD6E8BA304D08D519EA8FED7AD6E35
:1005C0008BA104D08E519EA8FED7AD6E8F519EA8F0
:1005D000FED7AD6E0001000C010EEA6E860EE96ECC
:1005E000EF500DE0020E016E006A002EFED7012EC4
:1005F000FBD7970E006E002EFED7EF2EF3D720EF1D
:1006000006F001018A6B4A6A8A6B8A510F080AE375
:10061000036A8A51390FE96E000E0320EA6EEF6A11
:100620008A2BF3D74A6A0001000C01018A6B8A51B8
:100630000F080AE3036A8A514F0FE96E000E032088
:10064000EA6EEF6A8A2BF3D70001000C0101846B7C
:10065000856B866B876B886B89915F6A0001606B25
:10066000010186510F0818E3036A8651390FE96EBC
:10067000000E0320EA6EEF503E0A000103E0330A49
:1006800004E006D00101872B05D00101882B02D0A0
:10069000010100D0862BE5D7872D03D0882D01D00E
:1006A00089818751010803E38851010806E20001AE
:1006B000A8DF0101876B886B72D189A169D04E5088
:1006C0000F0865E3000165A102D0010160D0036A53
:1006D0004E50390FE96E000E0320EA6EEF503E08CF
:1006E0000BE15F5209E100000000000000000A0E6B
:1006F0005F6E010E4E244C6E036A4E50390FE96E48
:10070000000E0320EA6EEF500D0809E15F500A0861
:1007100006E1605304E10A0E606F4EC04DF05F5079
:100720000A0832E160510A082FE15F6A606B658157
:100730007CDF4D504C5C28E24CC084F10101856B9C
:1007400084514D5C1CE3036A85514F0F016E000E0E
:10075000032203C08BF185514C24036A390FE96EE3
:10076000000E0320EA6EEFCF8DF18BC1EAFF01C0CE
:10077000E9FF8DC1EFFF8451842B852BE1D74C50CD
:100780004D5C0001616F3DDF4E2A010198D74E6A32
:10079000000165A103D14F50430816E150503108C4
:1007A00013E10A0E626F010E636F01018A6B8A51B9
:1007B000000181DC01018A2B000186DE080E0101A7
:1007C0008A5DF5E1E9D000014F50430816E1505031
:1007D000320813E1140E626F020E636F01018A6B1F
:1007E0008A5100017ADC01018A2B00016DDE080EBE
:1007F00001018A5DF5E1D0D000014F50430816E1B8
:100800005050330813E11E0E626F030E636F010137
:100810008A6B8A51000173DC01018A2B000154DECE
:10082000080E01018A5DF5E1B7D000014F50430881
:1008300016E15050340813E1280E626F040E636F06
:1008400001018A6B8A5100016CDC01018A2B0001D5
:100850003BDE080E01018A5DF5E19ED000014F509C
:10086000430816E15050350813E1320E626F050E51
:10087000636F01018A6B8A51000165DC01018A2BDB
:10088000000122DE080E01018A5DF5E185D000013C
:100890004F50430816E15050360813E13C0E626F8A
:1008A000060E636F01018A6B8A5100015EDC010153
:1008B0008A2B000109DE080E01018A5DF5E16CD08A
:1008C00000014F50430816E15050370813E1460E1F
:1008D000626F070E636F01018A6B8A51000157DC5A
:1008E00001018A2B0001F0DD080E01018A5DF5E1AE
:1008F00053D000014F50430816E15050380813E11F
:10090000500E626F080E636F01018A6B8A510001FD
:1009100050DC01018A2B0001D7DD080E01018A5D40
:10092000F5E13AD000014F50530837E150505408D8
:1009300034E16351645D19E1430EC6DD63C08AF1A1
:100940001F0E01018B6F0001D9DD030E01018A6FBB
:100950008A51000140DC01018A2B0001B5DD070E40
:1009600001018A5DF5E118D00001430EADDD63C0E1
:100970008AF11F0E01018B6F0001C0DD030E010122
:100980008A6F8A51000138DC01018A2B00019CDD4D
:10099000070E01018A5DF5E1000165910101000189
:1009A00064EF06F00101876B876B87510F080AE33C
:1009B000036A87511B0FE96E000E0320EA6EEF6A8F
:1009C000872BF3D7496A000108EF05F088C18AF147
:1009D00087C189F18AC103F0010189C1E9FF8AC198
:1009E000EAFFEF5206E0892BD8B48A2B0001F2D738
:1009F00001018751895D006E88518A59036E00C0DC
:100A000001F000010DEF05F00101866B0001CAD76E
:100A100085C188F184C187F1D9D701C086F1186AF0
:100A2000F2BE188EF29E85C195F184C194F186C103
:100A300096F106DC18BEF28E496A6CEF06F0F86A91
:100A4000D09E088EEA6AE96AB886A00EAF6E010EE3
:100A5000B06EA60EAC6E900EAB6EC150C00B0F09FF
:100A6000C16E070EB46E196A1A6A496A4A6A4B6AFD
:100A7000616BFF0E626F636F080E0101656F666B3D
:100A8000676B0A0E686FFF0E696F6A6B6B6B6C6B3E
:100A90006D6B6E6B6F6B706B716B726B736B746B7A
:100AA000756B766B776B786B796B7A6B7B6B7C6B2A
:100AB0007D6F7E6F7F6F806F816B0001646F0101BE
:100AC0008291836BC150C00B0F09C16EC090C09260
:100AD000C094C09EC2809698C69A949E938093922A
:100AE000010EC66E000EC76ED190800ED56ECD6A17
:100AF000000ECA6E000ECB6E070EB46E9250926E50
:100B0000060E006E002EFED70000B450A19CB56A00
:100B1000C00EF2129D8AF28AD90ED76E030ED66EDF
:100B2000070E936E9590959E959C959A9598959E97
:100B30008C9E959C8C9C959A8C9A95988C9800018B
:100B40006591640E0101756FBE0E7B6F640E7C6F44
:100B50007A6F796F186AF2BE188EF29E140E936F38
:100B6000000144EC01F018BEF28E186AF2BE188E35
:100B7000F29E140E0101936F000144EC01F018BEC7
:100B8000F28E6CC185F16BC184F10101876B050E9A
:100B9000866F000123DC00C084F1010103C085F1F0
:100BA0008453D8A46FD08553D8A46CD084CF83F15C
:100BB0007F3D03D08450040B806F8450040B806F02
:100BC0007F51805D52E080C17FF1010E856F6D0E17
:100BD000846F000126D401C07DF10101846B845132
:100BE00000010DEC01F00101842B00016DDC060E0B
:100BF0000101845DF4E17DC18AF11F0E8B6F00015C
:100C00007DDC200E61DC0D0E5FDC0A0E5DDC633DD9
:100C100001D01BD0010E635D01017D5DD8B402D00F
:100C2000000113D0010E0001635D036A750FE96EC8
:100C3000010E0320EA6EEFCF85F185C186F1CCD499
:100C4000320E0101696F63C064F00101816B815153
:100C500007080AE3036A81516D0FE96E010E032054
:100C6000EA6EEF6A812BF3D782818150070BFF0A6E
:100C7000080F6A6F036A6A516D0FE96E010E032057
:100C8000EA6EEF2A6CC185F16BC184F1876B0A0EA5
:100C9000866F0001EEEC01F000C084F1010103C099
:100CA00085F184531BE1855319E10001633D04D0B4
:100CB000320E0101696F00016351645D04E00A0EA8
:100CC0000101696F0001C2D465A108D00101856BE3
:100CD0004F0E846F000198D66591A7DC000151D7B3
:020CE00003000F
:020000040030CA
:0E00000027CC390E008701000FC00FE00F4023
:00000001FF
;PIC18F4550
;CRC=CC86  CREATED="06-Mar-13 09:17"
